{
  "contractName": "MonthlySubscription",
  "abi": [
    {
      "constant": false,
      "inputs": [],
      "name": "isDue",
      "outputs": [
        {
          "name": "",
          "type": "bool"
        }
      ],
      "payable": false,
      "stateMutability": "nonpayable",
      "type": "function"
    },
    {
      "constant": false,
      "inputs": [],
      "name": "isOverDue",
      "outputs": [
        {
          "name": "",
          "type": "bool"
        }
      ],
      "payable": false,
      "stateMutability": "nonpayable",
      "type": "function"
    },
    {
      "constant": false,
      "inputs": [],
      "name": "getDuePayment",
      "outputs": [
        {
          "name": "",
          "type": "address"
        }
      ],
      "payable": false,
      "stateMutability": "nonpayable",
      "type": "function"
    }
  ],
  "bytecode": "0x6080604052600060045534801561001557600080fd5b50610104806100256000396000f3fe6080604052348015600f57600080fd5b5060043610603c5760003560e01c806324975e551460415780633520ca9d1460615780639a1e4df21460a9575b600080fd5b604760c9565b604051808215151515815260200191505060405180910390f35b606760ce565b604051808273ffffffffffffffffffffffffffffffffffffffff1673ffffffffffffffffffffffffffffffffffffffff16815260200191505060405180910390f35b60af60d3565b604051808215151515815260200191505060405180910390f35b600090565b600090565b60009056fea165627a7a72305820f8b1f0e636d5a389df6cbb112fb64e1dcc5b6697f436a20949132e1d194cac740029",
  "source": "pragma solidity ^0.5.0;\nimport \"contracts/Payment.sol\";\n\ncontract MonthlySubscription {\n    address private owner;\n    address private source;\n    address private destination;\n    //date private nextDueDate;\n    //date private creationDate;\n    uint private daysUntilOverdue;\n    uint private amount = 0;\n    Payment[] payments;\n\n    function isDue() public returns(bool) {\n\n    }\n\n    function isOverDue() public returns(bool) {\n        //is overdue when now > nextDueDate + daysUntilOverdue and duePayment.IsPaid = false\n    }\n\n    function getDuePayment() public returns(Payment) {\n        //if isDue and duePayment.IsPaid create a new payment that is funded by owner\n        //return new Payment(this);\n    }\n}",
  "sourcePath": "/Users/stephenyoung/Source/ethereum/clockwork/contracts/Subscription.sol",
  "compiler": {
    "name": "solc",
    "version": "0.5.8+commit.23d335f2.Emscripten.clang"
  },
  "schemaVersion": "3.0.16",
  "updatedAt": "2019-10-14T06:37:12.677Z",
  "devdoc": {
    "methods": {}
  },
  "userdoc": {
    "methods": {}
  }
}