{
  "contractName": "Payment",
  "abi": [
    {
      "inputs": [
        {
          "name": "_destination",
          "type": "address"
        }
      ],
      "payable": true,
      "stateMutability": "payable",
      "type": "constructor"
    },
    {
      "constant": false,
      "inputs": [],
      "name": "execute",
      "outputs": [],
      "payable": false,
      "stateMutability": "nonpayable",
      "type": "function"
    }
  ],
  "bytecode": "0x608060405260006002556000600360006101000a81548160ff0219169083151502179055506040516020806101e18339810180604052602081101561004357600080fd5b8101908080519060200190929190505050336000806101000a81548173ffffffffffffffffffffffffffffffffffffffff021916908373ffffffffffffffffffffffffffffffffffffffff16021790555080600160006101000a81548173ffffffffffffffffffffffffffffffffffffffff021916908373ffffffffffffffffffffffffffffffffffffffff160217905550346002819055505060f6806100eb6000396000f3fe6080604052348015600f57600080fd5b506004361060285760003560e01c80636146195414602d575b600080fd5b60336035565b005b6000600254905060006002819055506001600360006101000a81548160ff021916908315150217905550600160009054906101000a900473ffffffffffffffffffffffffffffffffffffffff1673ffffffffffffffffffffffffffffffffffffffff166108fc829081150290604051600060405180830381858888f1935050505015801560c6573d6000803e3d6000fd5b505056fea165627a7a723058209e2b0b36a65938fa036377debd9bc71e56b2d95620096b040c528e875ef056af0029",
  "source": "pragma solidity ^0.5.0;\n\n//Todo :    Add isPaid and update\ncontract Payment {\n    address private owner;\n    address payable private destination;\n    uint private amount = 0;\n    bool private isPaid = false;\n\n    constructor(address payable _destination) payable public {\n        owner = msg.sender;\n        destination = _destination;\n        amount = msg.value;\n    }\n\n    function execute() public {\n        uint amountToTransfer = amount;\n        amount = 0;\n        isPaid = true;\n        destination.transfer(amountToTransfer);\n    }\n}",
  "sourcePath": "/Users/stephenyoung/Source/ethereum/clockwork/contracts/Payment.sol",
  "compiler": {
    "name": "solc",
    "version": "0.5.8+commit.23d335f2.Emscripten.clang"
  },
  "schemaVersion": "3.0.16",
  "updatedAt": "2019-10-14T06:37:12.676Z",
  "devdoc": {
    "methods": {}
  },
  "userdoc": {
    "methods": {}
  }
}